{
  "contractName": "Delivery",
  "abi": [
    {
      "inputs": [],
      "payable": false,
      "stateMutability": "nonpayable",
      "type": "constructor"
    },
    {
      "anonymous": false,
      "inputs": [
        {
          "indexed": false,
          "name": "order_id",
          "type": "uint256"
        },
        {
          "indexed": false,
          "name": "status",
          "type": "uint8"
        }
      ],
      "name": "order_update",
      "type": "event"
    },
    {
      "constant": true,
      "inputs": [
        {
          "name": "item",
          "type": "uint256"
        },
        {
          "name": "restaurant_id",
          "type": "uint256"
        }
      ],
      "name": "item_exists",
      "outputs": [
        {
          "name": "",
          "type": "bool"
        }
      ],
      "payable": false,
      "stateMutability": "view",
      "type": "function"
    },
    {
      "constant": false,
      "inputs": [],
      "name": "register_customer",
      "outputs": [
        {
          "name": "",
          "type": "bool"
        }
      ],
      "payable": false,
      "stateMutability": "nonpayable",
      "type": "function"
    },
    {
      "constant": false,
      "inputs": [],
      "name": "register_restaurant",
      "outputs": [
        {
          "name": "",
          "type": "bool"
        }
      ],
      "payable": false,
      "stateMutability": "nonpayable",
      "type": "function"
    },
    {
      "constant": false,
      "inputs": [],
      "name": "register_courier",
      "outputs": [
        {
          "name": "",
          "type": "bool"
        }
      ],
      "payable": false,
      "stateMutability": "nonpayable",
      "type": "function"
    },
    {
      "constant": true,
      "inputs": [],
      "name": "get_id",
      "outputs": [
        {
          "name": "",
          "type": "uint256"
        }
      ],
      "payable": false,
      "stateMutability": "view",
      "type": "function"
    },
    {
      "constant": false,
      "inputs": [
        {
          "name": "items",
          "type": "uint256[]"
        },
        {
          "name": "restaurant_id",
          "type": "uint256"
        }
      ],
      "name": "place_order",
      "outputs": [
        {
          "name": "",
          "type": "bool"
        }
      ],
      "payable": true,
      "stateMutability": "payable",
      "type": "function"
    },
    {
      "constant": false,
      "inputs": [],
      "name": "confirm_food_arrival",
      "outputs": [
        {
          "name": "",
          "type": "bool"
        }
      ],
      "payable": false,
      "stateMutability": "nonpayable",
      "type": "function"
    },
    {
      "constant": false,
      "inputs": [],
      "name": "withdraw_money",
      "outputs": [
        {
          "name": "",
          "type": "bool"
        }
      ],
      "payable": true,
      "stateMutability": "payable",
      "type": "function"
    },
    {
      "constant": false,
      "inputs": [
        {
          "name": "rating",
          "type": "uint256"
        }
      ],
      "name": "rate_courier",
      "outputs": [
        {
          "name": "",
          "type": "bool"
        }
      ],
      "payable": false,
      "stateMutability": "nonpayable",
      "type": "function"
    },
    {
      "constant": false,
      "inputs": [
        {
          "name": "rating",
          "type": "uint256"
        }
      ],
      "name": "rate_food",
      "outputs": [
        {
          "name": "",
          "type": "bool"
        }
      ],
      "payable": false,
      "stateMutability": "nonpayable",
      "type": "function"
    },
    {
      "constant": true,
      "inputs": [],
      "name": "get_status",
      "outputs": [
        {
          "name": "",
          "type": "uint8"
        }
      ],
      "payable": false,
      "stateMutability": "view",
      "type": "function"
    },
    {
      "constant": false,
      "inputs": [
        {
          "name": "order_id",
          "type": "uint256"
        }
      ],
      "name": "accept_delivery",
      "outputs": [
        {
          "name": "",
          "type": "bool"
        }
      ],
      "payable": true,
      "stateMutability": "payable",
      "type": "function"
    },
    {
      "constant": false,
      "inputs": [
        {
          "name": "order_id",
          "type": "uint256"
        }
      ],
      "name": "collect_food",
      "outputs": [
        {
          "name": "",
          "type": "bool"
        }
      ],
      "payable": false,
      "stateMutability": "nonpayable",
      "type": "function"
    },
    {
      "constant": false,
      "inputs": [
        {
          "name": "order_id",
          "type": "uint256"
        }
      ],
      "name": "deliver_food",
      "outputs": [
        {
          "name": "",
          "type": "bool"
        }
      ],
      "payable": false,
      "stateMutability": "nonpayable",
      "type": "function"
    },
    {
      "constant": false,
      "inputs": [
        {
          "name": "order_id",
          "type": "uint256"
        }
      ],
      "name": "collect_delivery_fee",
      "outputs": [
        {
          "name": "",
          "type": "bool"
        }
      ],
      "payable": false,
      "stateMutability": "nonpayable",
      "type": "function"
    },
    {
      "constant": false,
      "inputs": [
        {
          "name": "order_id",
          "type": "uint256"
        }
      ],
      "name": "accept_order",
      "outputs": [
        {
          "name": "",
          "type": "bool"
        }
      ],
      "payable": false,
      "stateMutability": "nonpayable",
      "type": "function"
    },
    {
      "constant": false,
      "inputs": [
        {
          "name": "order_id",
          "type": "uint256"
        }
      ],
      "name": "make_food",
      "outputs": [
        {
          "name": "",
          "type": "bool"
        }
      ],
      "payable": false,
      "stateMutability": "nonpayable",
      "type": "function"
    },
    {
      "constant": false,
      "inputs": [
        {
          "name": "order_id",
          "type": "uint256"
        }
      ],
      "name": "collect_food_fee",
      "outputs": [
        {
          "name": "",
          "type": "bool"
        }
      ],
      "payable": false,
      "stateMutability": "nonpayable",
      "type": "function"
    }
  ],
  "bytecode": "0x6080604052600160005560056001556000600255600060035560006004556000600555600560065534801561003357600080fd5b50613348806100436000396000f3006080604052600436106100fc576000357c0100000000000000000000000000000000000000000000000000000000900463ffffffff16806316212cde146101015780632a73747f146101305780632d10aea7146101755780632e70a987146101ba578063312f6be11461023557806336dcce1a1461026457806339aaba25146102a95780633d29e017146102e257806353113a9614610311578063715a3307146103565780638760ac6214610378578063a4ac83db146103a7578063ad4a8bb3146103ec578063c624b5c114610431578063d25391a214610480578063d7fd0457146104c5578063f287a42c1461050a578063f43fa80514610542575b600080fd5b34801561010d57600080fd5b5061011661056d565b604051808215151515815260200191505060405180910390f35b34801561013c57600080fd5b5061015b600480360381019080803590602001909291905050506106ee565b604051808215151515815260200191505060405180910390f35b34801561018157600080fd5b506101a060048036038101908080359060200190929190505050610979565b604051808215151515815260200191505060405180910390f35b61021b6004803603810190808035906020019082018035906020019080806020026020016040519081016040528093929190818152602001838360200280828437820191505050505050919291929080359060200190929190505050610c43565b604051808215151515815260200191505060405180910390f35b34801561024157600080fd5b5061024a61111a565b604051808215151515815260200191505060405180910390f35b34801561027057600080fd5b5061028f6004803603810190808035906020019092919050505061143d565b604051808215151515815260200191505060405180910390f35b3480156102b557600080fd5b506102be611707565b604051808260058111156102ce57fe5b60ff16815260200191505060405180910390f35b3480156102ee57600080fd5b506102f7611911565b604051808215151515815260200191505060405180910390f35b34801561031d57600080fd5b5061033c60048036038101908080359060200190929190505050611bb2565b604051808215151515815260200191505060405180910390f35b61035e611e53565b604051808215151515815260200191505060405180910390f35b34801561038457600080fd5b5061038d61212d565b604051808215151515815260200191505060405180910390f35b3480156103b357600080fd5b506103d2600480360381019080803590602001909291905050506122d6565b604051808215151515815260200191505060405180910390f35b3480156103f857600080fd5b50610417600480360381019080803590602001909291905050506125a0565b604051808215151515815260200191505060405180910390f35b34801561043d57600080fd5b506104666004803603810190808035906020019092919080359060200190929190505050612848565b604051808215151515815260200191505060405180910390f35b34801561048c57600080fd5b506104ab600480360381019080803590602001909291905050506128c8565b604051808215151515815260200191505060405180910390f35b3480156104d157600080fd5b506104f060048036038101908080359060200190929190505050612b53565b604051808215151515815260200191505060405180910390f35b61052860048036038101908080359060200190929190505050612d97565b604051808215151515815260200191505060405180910390f35b34801561054e57600080fd5b506105576130d7565b6040518082815260200191505060405180910390f35b6000806000600d60003373ffffffffffffffffffffffffffffffffffffffff1673ffffffffffffffffffffffffffffffffffffffff16815260200190815260200160002054141515610627576040517f08c379a000000000000000000000000000000000000000000000000000000000815260040180806020018281038252601b8152602001807f437573746f6d657220616c72656164792072656769737465726564000000000081525060200191505060405180910390fd5b60046000815480929190600101919050555060076000600454815260200190815260200160002090506004548160000181905550600081600101819055508060076000836000015481526020019081526020016000206000820154816000015560018201548160010155600282015481600201559050508060000154600d60003373ffffffffffffffffffffffffffffffffffffffff1673ffffffffffffffffffffffffffffffffffffffff16815260200190815260200160002081905550600191505090565b6000806000600d60003373ffffffffffffffffffffffffffffffffffffffff1673ffffffffffffffffffffffffffffffffffffffff168152602001908152602001600020541115156107a8576040517f08c379a00000000000000000000000000000000000000000000000000000000081526004018080602001828103825260158152602001807f596f75206172656e27742072656769737465726564000000000000000000000081525060200191505060405180910390fd5b600060076000600d60003373ffffffffffffffffffffffffffffffffffffffff1673ffffffffffffffffffffffffffffffffffffffff1681526020019081526020016000205481526020019081526020016000206002015414151515610876576040517f08c379a00000000000000000000000000000000000000000000000000000000081526004018080602001828103825260138152602001807f596f7520686176656e2774206f7264657265640000000000000000000000000081525060200191505060405180910390fd5b60008310158015610888575060058311155b15156108fc576040517f08c379a000000000000000000000000000000000000000000000000000000000815260040180806020018281038252600e8152602001807f496e76616c696420726174696e6700000000000000000000000000000000000081525060200191505060405180910390fd5b60076000600d60003373ffffffffffffffffffffffffffffffffffffffff1673ffffffffffffffffffffffffffffffffffffffff16815260200190815260200160002054815260200190815260200160002060020154905082600a6000838152602001908152602001600020600801819055506001915050919050565b6000806000600b60003373ffffffffffffffffffffffffffffffffffffffff1673ffffffffffffffffffffffffffffffffffffffff16815260200190815260200160002054111515610a33576040517f08c379a00000000000000000000000000000000000000000000000000000000081526004018080602001828103825260158152602001807f596f75206172656e27742072656769737465726564000000000000000000000081525060200191505060405180910390fd5b600b60003373ffffffffffffffffffffffffffffffffffffffff1673ffffffffffffffffffffffffffffffffffffffff16815260200190815260200160002054905080600a600085815260200190815260200160002060030154141515610b02576040517f08c379a000000000000000000000000000000000000000000000000000000000815260040180806020018281038252600e8152602001807f4e6f7420796f7572206f7264657200000000000000000000000000000000000081525060200191505060405180910390fd5b60006005811115610b0f57fe5b600a600085815260200190815260200160002060060160009054906101000a900460ff166005811115610b3e57fe5b141515610bb3576040517f08c379a000000000000000000000000000000000000000000000000000000000815260040180806020018281038252601b8152602001807f416c72656164792061636365707465642074686973206f72646572000000000081525060200191505060405180910390fd5b7f0c2f387cf39fbb79382e223d10c940a8f2eaada67a10a1d377ff2e6f54b450d083600160405180838152602001826005811115610bed57fe5b60ff1681526020019250505060405180910390a16001600a600085815260200190815260200160002060060160006101000a81548160ff02191690836005811115610c3457fe5b02179055506001915050919050565b600080600080600d60003373ffffffffffffffffffffffffffffffffffffffff1673ffffffffffffffffffffffffffffffffffffffff16815260200190815260200160002054111515610cfe576040517f08c379a00000000000000000000000000000000000000000000000000000000081526004018080602001828103825260158152602001807f596f75206172656e27742072656769737465726564000000000000000000000081525060200191505060405180910390fd5b6003548411151515610d78576040517f08c379a00000000000000000000000000000000000000000000000000000000081526004018080602001828103825260188152602001807f52657374617572616e7420646f65736e2774206578697374000000000000000081525060200191505060405180910390fd5b600060076000600d60003373ffffffffffffffffffffffffffffffffffffffff1673ffffffffffffffffffffffffffffffffffffffff16815260200190815260200160002054815260200190815260200160002060010154141515610e45576040517f08c379a00000000000000000000000000000000000000000000000000000000081526004018080602001828103825260148152602001807f416c726561647920706c61636564206f7264657200000000000000000000000081525060200191505060405180910390fd5b3460005460015487510201141515610ec5576040517f08c379a00000000000000000000000000000000000000000000000000000000081526004018080602001828103825260138152602001807f496e73756666696369656e7420616d6f756e740000000000000000000000000081525060200191505060405180910390fd5b600091505b8451821015610f7c5760011515610ef88684815181101515610ee857fe5b9060200190602002015186612848565b1515141515610f6f576040517f08c379a00000000000000000000000000000000000000000000000000000000081526004018080602001828103825260128152602001807f4974656d20646f65736e2774206578697374000000000000000000000000000081525060200191505060405180910390fd5b8180600101925050610eca565b600560008154809291906001019190505550600a600060055481526020019081526020016000209050600554816000018190555084816001019080519060200190610fc8929190613258565b50600154855102816002018190555060008160060160006101000a81548160ff02191690836005811115610ff857fe5b0217905550838160030181905550600d60003373ffffffffffffffffffffffffffffffffffffffff1673ffffffffffffffffffffffffffffffffffffffff168152602001908152602001600020548160050181905550806000015460076000600d60003373ffffffffffffffffffffffffffffffffffffffff1673ffffffffffffffffffffffffffffffffffffffff168152602001908152602001600020548152602001908152602001600020600101819055507f0c2f387cf39fbb79382e223d10c940a8f2eaada67a10a1d377ff2e6f54b450d081600001548260060160009054906101000a900460ff16604051808381526020018260058111156110fa57fe5b60ff1681526020019250505060405180910390a160019250505092915050565b6000806000600d60003373ffffffffffffffffffffffffffffffffffffffff1673ffffffffffffffffffffffffffffffffffffffff168152602001908152602001600020541115156111d4576040517f08c379a00000000000000000000000000000000000000000000000000000000081526004018080602001828103825260158152602001807f596f75206172656e27742072656769737465726564000000000000000000000081525060200191505060405180910390fd5b600060076000600d60003373ffffffffffffffffffffffffffffffffffffffff1673ffffffffffffffffffffffffffffffffffffffff16815260200190815260200160002054815260200190815260200160002060010154141515156112a2576040517f08c379a00000000000000000000000000000000000000000000000000000000081526004018080602001828103825260208152602001807f596f7520646f6e2774206861766520616e7920616374697665206f726465727381525060200191505060405180910390fd5b60076000600d60003373ffffffffffffffffffffffffffffffffffffffff1673ffffffffffffffffffffffffffffffffffffffff1681526020019081526020016000205481526020019081526020016000206001015490506005600a600083815260200190815260200160002060060160006101000a81548160ff0219169083600581111561132d57fe5b0217905550600060076000600d60003373ffffffffffffffffffffffffffffffffffffffff1673ffffffffffffffffffffffffffffffffffffffff168152602001908152602001600020548152602001908152602001600020600101819055508060076000600d60003373ffffffffffffffffffffffffffffffffffffffff1673ffffffffffffffffffffffffffffffffffffffff168152602001908152602001600020548152602001908152602001600020600201819055507f0c2f387cf39fbb79382e223d10c940a8f2eaada67a10a1d377ff2e6f54b450d08160056040518083815260200182600581111561142157fe5b60ff1681526020019250505060405180910390a1600191505090565b6000806000600c60003373ffffffffffffffffffffffffffffffffffffffff1673ffffffffffffffffffffffffffffffffffffffff168152602001908152602001600020541115156114f7576040517f08c379a00000000000000000000000000000000000000000000000000000000081526004018080602001828103825260158152602001807f596f75206172656e27742072656769737465726564000000000000000000000081525060200191505060405180910390fd5b600c60003373ffffffffffffffffffffffffffffffffffffffff1673ffffffffffffffffffffffffffffffffffffffff1681526020019081526020016000205490508260096000838152602001908152602001600020600101541415156115c6576040517f08c379a000000000000000000000000000000000000000000000000000000000815260040180806020018281038252600e8152602001807f4e6f7420796f7572206f7264657200000000000000000000000000000000000081525060200191505060405180910390fd5b600360058111156115d357fe5b600a600085815260200190815260200160002060060160009054906101000a900460ff16600581111561160257fe5b141515611677576040517f08c379a00000000000000000000000000000000000000000000000000000000081526004018080602001828103825260118152602001807f466f6f64206e6f7420796574206d61646500000000000000000000000000000081525060200191505060405180910390fd5b7f0c2f387cf39fbb79382e223d10c940a8f2eaada67a10a1d377ff2e6f54b450d0836004604051808381526020018260058111156116b157fe5b60ff1681526020019250505060405180910390a16004600a600085815260200190815260200160002060060160006101000a81548160ff021916908360058111156116f857fe5b02179055506001915050919050565b6000806000600d60003373ffffffffffffffffffffffffffffffffffffffff1673ffffffffffffffffffffffffffffffffffffffff168152602001908152602001600020541115156117c1576040517f08c379a00000000000000000000000000000000000000000000000000000000081526004018080602001828103825260158152602001807f596f75206172656e27742072656769737465726564000000000000000000000081525060200191505060405180910390fd5b600060076000600d60003373ffffffffffffffffffffffffffffffffffffffff1673ffffffffffffffffffffffffffffffffffffffff168152602001908152602001600020548152602001908152602001600020600101541415151561188f576040517f08c379a00000000000000000000000000000000000000000000000000000000081526004018080602001828103825260208152602001807f596f7520646f6e2774206861766520616e7920616374697665206f726465727381525060200191505060405180910390fd5b60076000600d60003373ffffffffffffffffffffffffffffffffffffffff1673ffffffffffffffffffffffffffffffffffffffff168152602001908152602001600020548152602001908152602001600020600101549050600a600082815260200190815260200160002060060160009054906101000a900460ff1691505090565b6000806000600b60003373ffffffffffffffffffffffffffffffffffffffff1673ffffffffffffffffffffffffffffffffffffffff168152602001908152602001600020541415156119cb576040517f08c379a000000000000000000000000000000000000000000000000000000000815260040180806020018281038252601d8152602001807f52657374617572616e7420616c7265616479207265676973746572656400000081525060200191505060405180910390fd5b600360008154809291906001019190505550600860006003548152602001908152602001600020905060035481600001819055506007816001018190555060078160020181905550806003016001908060018154018082558091505090600182039060005260206000200160009091929091909150555080600301600290806001815401808255809150509060018203906000526020600020016000909192909190915055508060030160039080600181540180825580915050906001820390600052602060002001600090919290919091505550806003016004908060018154018082558091505090600182039060005260206000200160009091929091909150555080600301600590806001815401808255809150509060018203906000526020600020016000909192909190915055508060086000836000015481526020019081526020016000206000820154816000015560018201548160010155600282015481600201556003820181600301908054611b4a9291906132a5565b5060048201548160040155600582015481600501559050508060000154600b60003373ffffffffffffffffffffffffffffffffffffffff1673ffffffffffffffffffffffffffffffffffffffff16815260200190815260200160002081905550600191505090565b6000806000600b60003373ffffffffffffffffffffffffffffffffffffffff1673ffffffffffffffffffffffffffffffffffffffff16815260200190815260200160002054111515611c6c576040517f08c379a00000000000000000000000000000000000000000000000000000000081526004018080602001828103825260158152602001807f596f75206172656e27742072656769737465726564000000000000000000000081525060200191505060405180910390fd5b600b60003373ffffffffffffffffffffffffffffffffffffffff1673ffffffffffffffffffffffffffffffffffffffff16815260200190815260200160002054905080600a600085815260200190815260200160002060030154141515611d3b576040517f08c379a000000000000000000000000000000000000000000000000000000000815260040180806020018281038252600e8152602001807f4e6f7420796f7572206f7264657200000000000000000000000000000000000081525060200191505060405180910390fd5b60046005811115611d4857fe5b600a600085815260200190815260200160002060060160009054906101000a900460ff166005811115611d7757fe5b141515611dec576040517f08c379a000000000000000000000000000000000000000000000000000000000815260040180806020018281038252601d8152602001807f436f757269657220686173206e6f74207069636b65642069742079657400000081525060200191505060405180910390fd5b3373ffffffffffffffffffffffffffffffffffffffff166108fc600a6000868152602001908152602001600020600201549081150290604051600060405180830381858888f19350505050158015611e48573d6000803e3d6000fd5b506001915050919050565b6000806000600d60003373ffffffffffffffffffffffffffffffffffffffff1673ffffffffffffffffffffffffffffffffffffffff16815260200190815260200160002054111515611f0d576040517f08c379a00000000000000000000000000000000000000000000000000000000081526004018080602001828103825260158152602001807f596f75206172656e27742072656769737465726564000000000000000000000081525060200191505060405180910390fd5b600060076000600d60003373ffffffffffffffffffffffffffffffffffffffff1673ffffffffffffffffffffffffffffffffffffffff1681526020019081526020016000205481526020019081526020016000206001015414151515611fdb576040517f08c379a00000000000000000000000000000000000000000000000000000000081526004018080602001828103825260208152602001807f596f7520646f6e2774206861766520616e7920616374697665206f726465727381525060200191505060405180910390fd5b60076000600d60003373ffffffffffffffffffffffffffffffffffffffff1673ffffffffffffffffffffffffffffffffffffffff168152602001908152602001600020548152602001908152602001600020600101549050600654600a60008381526020019081526020016000206009015442031115156120c4576040517f08c379a000000000000000000000000000000000000000000000000000000000815260040180806020018281038252601b8152602001807f506c6561736520776169742061206c6974746c65206c6f6e676572000000000081525060200191505060405180910390fd5b3373ffffffffffffffffffffffffffffffffffffffff166108fc600054600a600085815260200190815260200160002060020154019081150290604051600060405180830381858888f19350505050158015612124573d6000803e3d6000fd5b50600191505090565b6000806000600c60003373ffffffffffffffffffffffffffffffffffffffff1673ffffffffffffffffffffffffffffffffffffffff168152602001908152602001600020541415156121e7576040517f08c379a000000000000000000000000000000000000000000000000000000000815260040180806020018281038252601a8152602001807f436f757269657220616c7265616479207265676973746572656400000000000081525060200191505060405180910390fd5b6002600081548092919060010191905055506009600060025481526020019081526020016000209050600254816000018190555060078160020181905550600781600301819055508060096000836000015481526020019081526020016000206000820154816000015560018201548160010155600282015481600201556003820154816003015560048201548160040155600582015481600501559050508060000154600c60003373ffffffffffffffffffffffffffffffffffffffff1673ffffffffffffffffffffffffffffffffffffffff16815260200190815260200160002081905550600191505090565b6000806000600b60003373ffffffffffffffffffffffffffffffffffffffff1673ffffffffffffffffffffffffffffffffffffffff16815260200190815260200160002054111515612390576040517f08c379a00000000000000000000000000000000000000000000000000000000081526004018080602001828103825260158152602001807f596f75206172656e27742072656769737465726564000000000000000000000081525060200191505060405180910390fd5b600b60003373ffffffffffffffffffffffffffffffffffffffff1673ffffffffffffffffffffffffffffffffffffffff16815260200190815260200160002054905080600a60008581526020019081526020016000206003015414151561245f576040517f08c379a000000000000000000000000000000000000000000000000000000000815260040180806020018281038252600e8152602001807f4e6f7420796f7572206f7264657200000000000000000000000000000000000081525060200191505060405180910390fd5b6002600581111561246c57fe5b600a600085815260200190815260200160002060060160009054906101000a900460ff16600581111561249b57fe5b141515612510576040517f08c379a00000000000000000000000000000000000000000000000000000000081526004018080602001828103825260118152602001807f436f7572696572206e6f7420666f756e6400000000000000000000000000000081525060200191505060405180910390fd5b7f0c2f387cf39fbb79382e223d10c940a8f2eaada67a10a1d377ff2e6f54b450d08360036040518083815260200182600581111561254a57fe5b60ff1681526020019250505060405180910390a16003600a600085815260200190815260200160002060060160006101000a81548160ff0219169083600581111561259157fe5b02179055506001915050919050565b6000806000600c60003373ffffffffffffffffffffffffffffffffffffffff1673ffffffffffffffffffffffffffffffffffffffff1681526020019081526020016000205411151561265a576040517f08c379a00000000000000000000000000000000000000000000000000000000081526004018080602001828103825260158152602001807f596f75206172656e27742072656769737465726564000000000000000000000081525060200191505060405180910390fd5b600c60003373ffffffffffffffffffffffffffffffffffffffff1673ffffffffffffffffffffffffffffffffffffffff168152602001908152602001600020549050826009600083815260200190815260200160002060010154141515612729576040517f08c379a000000000000000000000000000000000000000000000000000000000815260040180806020018281038252600e8152602001807f4e6f7420796f7572206f7264657200000000000000000000000000000000000081525060200191505060405180910390fd5b60058081111561273557fe5b600a600085815260200190815260200160002060060160009054906101000a900460ff16600581111561276457fe5b1415156127d9576040517f08c379a00000000000000000000000000000000000000000000000000000000081526004018080602001828103825260168152602001807f466f6f64206e6f74207965742064656c6976657265640000000000000000000081525060200191505060405180910390fd5b3373ffffffffffffffffffffffffffffffffffffffff166108fc6000549081150290604051600060405180830381858888f19350505050158015612821573d6000803e3d6000fd5b50600060096000838152602001908152602001600020600101819055506001915050919050565b600080600090505b60086000848152602001908152602001600020600301805490508110156128bc5783600860008581526020019081526020016000206003018281548110151561289557fe5b906000526020600020015414156128af57600191506128c1565b8080600101915050612850565b600091505b5092915050565b6000806000600d60003373ffffffffffffffffffffffffffffffffffffffff1673ffffffffffffffffffffffffffffffffffffffff16815260200190815260200160002054111515612982576040517f08c379a00000000000000000000000000000000000000000000000000000000081526004018080602001828103825260158152602001807f596f75206172656e27742072656769737465726564000000000000000000000081525060200191505060405180910390fd5b600060076000600d60003373ffffffffffffffffffffffffffffffffffffffff1673ffffffffffffffffffffffffffffffffffffffff1681526020019081526020016000205481526020019081526020016000206002015414151515612a50576040517f08c379a00000000000000000000000000000000000000000000000000000000081526004018080602001828103825260138152602001807f596f7520686176656e2774206f7264657265640000000000000000000000000081525060200191505060405180910390fd5b60008310158015612a62575060058311155b1515612ad6576040517f08c379a000000000000000000000000000000000000000000000000000000000815260040180806020018281038252600e8152602001807f496e76616c696420726174696e6700000000000000000000000000000000000081525060200191505060405180910390fd5b60076000600d60003373ffffffffffffffffffffffffffffffffffffffff1673ffffffffffffffffffffffffffffffffffffffff16815260200190815260200160002054815260200190815260200160002060020154905082600a6000838152602001908152602001600020600701819055506001915050919050565b6000806000600c60003373ffffffffffffffffffffffffffffffffffffffff1673ffffffffffffffffffffffffffffffffffffffff16815260200190815260200160002054111515612c0d576040517f08c379a00000000000000000000000000000000000000000000000000000000081526004018080602001828103825260158152602001807f596f75206172656e27742072656769737465726564000000000000000000000081525060200191505060405180910390fd5b600c60003373ffffffffffffffffffffffffffffffffffffffff1673ffffffffffffffffffffffffffffffffffffffff168152602001908152602001600020549050826009600083815260200190815260200160002060010154141515612cdc576040517f08c379a000000000000000000000000000000000000000000000000000000000815260040180806020018281038252600e8152602001807f4e6f7420796f7572206f7264657200000000000000000000000000000000000081525060200191505060405180910390fd5b60046005811115612ce957fe5b600a600085815260200190815260200160002060060160009054906101000a900460ff166005811115612d1857fe5b141515612d8d576040517f08c379a00000000000000000000000000000000000000000000000000000000081526004018080602001828103825260138152602001807f466f6f64206e6f7420796574207069636b65640000000000000000000000000081525060200191505060405180910390fd5b6001915050919050565b6000806000600c60003373ffffffffffffffffffffffffffffffffffffffff1673ffffffffffffffffffffffffffffffffffffffff16815260200190815260200160002054111515612e51576040517f08c379a00000000000000000000000000000000000000000000000000000000081526004018080602001828103825260158152602001807f596f75206172656e27742072656769737465726564000000000000000000000081525060200191505060405180910390fd5b600c60003373ffffffffffffffffffffffffffffffffffffffff1673ffffffffffffffffffffffffffffffffffffffff16815260200190815260200160002054905060006009600083815260200190815260200160002060010154141515612f21576040517f08c379a00000000000000000000000000000000000000000000000000000000081526004018080602001828103825260208152602001807f416c72656164792064656c69766572696e6720616e6f74686572206f7264657281525060200191505060405180910390fd5b60016005811115612f2e57fe5b600a600085815260200190815260200160002060060160009054906101000a900460ff166005811115612f5d57fe5b141515612fd2576040517f08c379a000000000000000000000000000000000000000000000000000000000815260040180806020018281038252600f8152602001807f416c726561647920636c61696d6564000000000000000000000000000000000081525060200191505060405180910390fd5b7f0c2f387cf39fbb79382e223d10c940a8f2eaada67a10a1d377ff2e6f54b450d08360026040518083815260200182600581111561300c57fe5b60ff1681526020019250505060405180910390a16002600a600085815260200190815260200160002060060160006101000a81548160ff0219169083600581111561305357fe5b0217905550600c60003373ffffffffffffffffffffffffffffffffffffffff1673ffffffffffffffffffffffffffffffffffffffff16815260200190815260200160002054600a6000858152602001908152602001600020600401819055508260096000838152602001908152602001600020600101819055506001915050919050565b600080600d60003373ffffffffffffffffffffffffffffffffffffffff1673ffffffffffffffffffffffffffffffffffffffff16815260200190815260200160002054905060008114151561312e57809150613254565b600c60003373ffffffffffffffffffffffffffffffffffffffff1673ffffffffffffffffffffffffffffffffffffffff16815260200190815260200160002054905060008114151561318257809150613254565b600b60003373ffffffffffffffffffffffffffffffffffffffff1673ffffffffffffffffffffffffffffffffffffffff1681526020019081526020016000205490506000811415156131d657809150613254565b6000811415151561324f576040517f08c379a00000000000000000000000000000000000000000000000000000000081526004018080602001828103825260158152602001807f596f75206172656e27742072656769737465726564000000000000000000000081525060200191505060405180910390fd5b600091505b5090565b828054828255906000526020600020908101928215613294579160200282015b82811115613293578251825591602001919060010190613278565b5b5090506132a191906132f7565b5090565b8280548282559060005260206000209081019282156132e65760005260206000209182015b828111156132e55782548255916001019190600101906132ca565b5b5090506132f391906132f7565b5090565b61331991905b808211156133155760008160009055506001016132fd565b5090565b905600a165627a7a72305820b13045af2139137a121e2c0938fcb320e2b18d7d5b580c9145515badca7a54270029",
  "source": "pragma solidity ^0.4.24;\n\ncontract Delivery {\n    uint delivery_fee = 1;\n    uint food_cost = 5;\n    uint courier_count = 0;\n    uint restaurant_count = 0;\n    uint customer_count = 0;\n    uint order_count = 0;\n    uint time_limit = 5;\n    \n    enum OrderStatus {ordered, accepted, courier_found, prepared, picked, delivered}\n    \n    struct Customer {\n        uint id;\n        uint cur_order;\n        uint last_order;\n    }\n    \n    struct Restaurant {\n        uint id;\n        uint loc_x;\n        uint loc_y;\n        uint[] menu;\n        // bool online_status;\n        uint avg_rating;\n        uint order_count;\n    }\n    \n    struct Courier {\n        uint id;\n        // bool online_status;\n        uint cur_order;\n        uint loc_x;\n        uint loc_y;\n        uint avg_rating;\n        uint order_count;\n    }\n    \n    struct Order {\n        uint id;\n        uint[] items;\n        uint price;\n        uint rest;\n        uint del;\n        uint cust;\n        OrderStatus status;\n        uint del_rating;\n        uint rest_rating;\n        uint time;\n    }\n    \n    mapping(uint => Customer) customer_details;\n    mapping(uint => Restaurant) restaurant_details;\n    mapping(uint => Courier) courier_details;\n    mapping(uint => Order) order_details;\n    \n    mapping(address => uint) get_restaurant_id;\n    mapping(address => uint ) get_courier_id;\n    mapping(address => uint) get_customer_id;\n    \n    \n    /* ---------------EVENTS----------------- */\n    \n    event order_update(uint order_id, OrderStatus status);\n    \n    /* ---------------MODIFIERS-------------- */\n    \n    modifier is_customer() {\n        require(get_customer_id[msg.sender] > 0, \"You aren't registered\");\n        _;\n    }\n    \n    modifier is_courier() {\n        require(get_courier_id[msg.sender] > 0, \"You aren't registered\");\n        _;\n    }\n    \n    modifier is_restaurant() {\n        require(get_restaurant_id[msg.sender] > 0, \"You aren't registered\");\n        _;\n    }\n    \n    modifier has_ordered() {\n        require(customer_details[get_customer_id[msg.sender]].cur_order != 0, \"You don't have any active orders\");\n        _;\n    }\n    \n    /* ---------------UTILITY FUNCTIONS------ */\n    \n    function Delivery() public  {\n        \n    }\n\n    function item_exists(uint item, uint restaurant_id) \n    public view returns(bool) {\n        uint i;\n        for (i = 0; i < restaurant_details[restaurant_id].menu.length; i++) {\n            if (restaurant_details[restaurant_id].menu[i] == item) {\n                return true;\n            }\n        }\n        return false;\n    }\n    \n    /* ---------------REGISTRATION----------- */\n    \n    function register_customer() \n    public returns(bool) {\n        require(get_customer_id[msg.sender] == 0, \"Customer already registered\");\n        \n        customer_count++;\n        Customer storage c = customer_details[customer_count];\n        c.id = customer_count;\n        c.cur_order = 0;\n        customer_details[c.id] = c;\n        get_customer_id[msg.sender] = c.id;\n        return true;\n    }\n    \n    function register_restaurant() \n    public returns(bool) {\n        require(get_restaurant_id[msg.sender] == 0, \"Restaurant already registered\");\n\n        restaurant_count++;\n        Restaurant storage r = restaurant_details[restaurant_count];\n        r.id = restaurant_count;\n        r.loc_x = 7;\n        r.loc_y = 7;\n        r.menu.push(1);\n        r.menu.push(2);\n        r.menu.push(3);\n        r.menu.push(4);\n        r.menu.push(5);\n        restaurant_details[r.id] = r;\n        get_restaurant_id[msg.sender] = r.id;\n        return true;\n    }\n    \n    function register_courier() \n    public returns(bool) {\n        require(get_courier_id[msg.sender] == 0, \"Courier already registered\");\n        \n        courier_count++;\n        Courier storage c = courier_details[courier_count];\n        c.id = courier_count;\n        c.loc_x = 7;\n        c.loc_y = 7;\n        courier_details[c.id] = c;\n        get_courier_id[msg.sender] = c.id;\n        return true;\n    }\n    \n    function get_id()\n    public view returns(uint) {\n        uint id;\n        id = get_customer_id[msg.sender];\n        if (id != 0)\n            return id;\n            \n        id = get_courier_id[msg.sender];\n        if (id != 0)\n            return id;\n            \n        id = get_restaurant_id[msg.sender];\n        if (id != 0)\n            return id;\n            \n        require(id != 0, \"You aren't registered\");\n        return 0;\n    }\n    \n    /* ---------------CUSTOMER--------------- */\n    \n    function place_order(uint[] items, uint restaurant_id)\n    is_customer()\n    public payable returns(bool) {\n        require(restaurant_id <= restaurant_count, \"Restaurant doesn't exist\");\n        require(customer_details[get_customer_id[msg.sender]].cur_order == 0, \"Already placed order\");\n        require(items.length * food_cost + delivery_fee == msg.value, \"Insufficient amount\");\n        uint i;\n        for (i = 0; i < items.length; i++) {\n            require(item_exists(items[i], restaurant_id) == true, \"Item doesn't exist\");\n        }\n        \n        order_count++;\n        Order storage o = order_details[order_count];\n        o.id = order_count;\n        o.items = items;\n        o.price = items.length * food_cost;\n        o.status = OrderStatus.ordered;\n        o.rest = restaurant_id;\n        o.cust = get_customer_id[msg.sender];\n        \n        customer_details[get_customer_id[msg.sender]].cur_order = o.id;\n        emit order_update(o.id, o.status);\n        return true;\n        \n    }\n    \n    function confirm_food_arrival()\n    is_customer()\n    has_ordered()\n    public returns (bool) {\n        uint order_id = customer_details[get_customer_id[msg.sender]].cur_order;\n        order_details[order_id].status = OrderStatus.delivered;\n        customer_details[get_customer_id[msg.sender]].cur_order = 0;\n        customer_details[get_customer_id[msg.sender]].last_order = order_id;\n        emit order_update(order_id, OrderStatus.delivered);\n        \n        return true;\n    }\n    \n    function withdraw_money() \n    is_customer()\n    has_ordered()\n    public payable returns (bool) {\n        uint order_id = customer_details[get_customer_id[msg.sender]].cur_order;\n        require(now - order_details[order_id].time > time_limit, \"Please wait a little longer\");\n        \n        msg.sender.transfer(order_details[order_id].price + delivery_fee);\n        \n        return true;\n    }\n    \n    function rate_courier(uint rating) \n    is_customer()\n    public returns (bool) {\n        require(customer_details[get_customer_id[msg.sender]].last_order != 0, \"You haven't ordered\");\n        require(rating >= 0 && rating <= 5, \"Invalid rating\");\n        \n        uint order_id = customer_details[get_customer_id[msg.sender]].last_order;\n        order_details[order_id].del_rating = rating;\n        // NEED TO ADD UPDATION OF AVERAGE RATING\n        return true;\n    }\n    \n    function rate_food(uint rating)\n    is_customer()\n    public returns (bool) {\n        require(customer_details[get_customer_id[msg.sender]].last_order != 0, \"You haven't ordered\");\n        require(rating >= 0 && rating <= 5, \"Invalid rating\");\n        \n        uint order_id = customer_details[get_customer_id[msg.sender]].last_order;\n        order_details[order_id].rest_rating = rating;\n        // NEED TO ADD UPDATION OF AVERAGE RATING\n        return true;        \n    }\n    \n    function get_status()\n    is_customer()\n    has_ordered()\n    public view returns (OrderStatus) {\n        uint order_id = customer_details[get_customer_id[msg.sender]].cur_order;\n        return order_details[order_id].status;\n    }\n    \n    /* ---------------COURIER---------------- */\n    \n    function accept_delivery(uint order_id)\n    is_courier()\n    public payable returns (bool) {\n        uint courier_id = get_courier_id[msg.sender];\n        require(courier_details[courier_id].cur_order == 0, \"Already delivering another order\");\n        require(order_details[order_id].status == OrderStatus.accepted, \"Already claimed\");\n        \n        emit order_update(order_id, OrderStatus.courier_found);\n        order_details[order_id].status = OrderStatus.courier_found;\n        order_details[order_id].del = get_courier_id[msg.sender];\n        courier_details[courier_id].cur_order = order_id;\n        \n        return true;\n    }\n    \n    function collect_food(uint order_id)\n    is_courier()\n    public returns (bool) {\n        uint courier_id = get_courier_id[msg.sender];\n        require(courier_details[courier_id].cur_order == order_id, \"Not your order\");\n        require(order_details[order_id].status == OrderStatus.prepared, \"Food not yet made\");\n    \n        emit order_update(order_id, OrderStatus.picked);\n        order_details[order_id].status = OrderStatus.picked;\n        \n        return true;\n        \n    }\n    \n    function deliver_food(uint order_id)\n    is_courier()\n    public returns (bool) {\n        uint courier_id = get_courier_id[msg.sender];\n        require(courier_details[courier_id].cur_order == order_id, \"Not your order\");\n        require(order_details[order_id].status == OrderStatus.picked, \"Food not yet picked\");\n        \n        \n        return true;    \n        \n    }\n    \n    function collect_delivery_fee(uint order_id)\n    is_courier()\n    public returns (bool) {\n        uint courier_id = get_courier_id[msg.sender];\n        require(courier_details[courier_id].cur_order == order_id, \"Not your order\");\n        require(order_details[order_id].status == OrderStatus.delivered, \"Food not yet delivered\");\n        \n        msg.sender.transfer(delivery_fee);\n        courier_details[courier_id].cur_order = 0;\n        \n        return true;    \n    }\n    \n    /* ---------------RESTAURANT------------- */\n    \n    function accept_order(uint order_id)\n    is_restaurant\n    public returns (bool) {\n        uint restaurant_id = get_restaurant_id[msg.sender];\n        require(order_details[order_id].rest == restaurant_id, \"Not your order\");\n        require(order_details[order_id].status == OrderStatus.ordered, \"Already accepted this order\");\n    \n        emit order_update(order_id, OrderStatus.accepted);\n        order_details[order_id].status = OrderStatus.accepted;\n        \n        return true;\n    }\n    \n    function make_food(uint order_id)\n    is_restaurant()\n    public returns (bool) {\n        uint restaurant_id = get_restaurant_id[msg.sender];\n        require(order_details[order_id].rest == restaurant_id, \"Not your order\");\n        require(order_details[order_id].status == OrderStatus.courier_found, \"Courier not found\");\n    \n        emit order_update(order_id, OrderStatus.prepared);\n        order_details[order_id].status = OrderStatus.prepared;\n        \n        return true;\n    }\n    \n    function collect_food_fee(uint order_id)\n    is_restaurant()\n    public returns (bool) {\n        uint restaurant_id = get_restaurant_id[msg.sender];\n        require(order_details[order_id].rest == restaurant_id, \"Not your order\");\n        require(order_details[order_id].status == OrderStatus.picked, \"Courier has not picked it yet\");\n    \n        msg.sender.transfer(order_details[order_id].price);        \n        return true;\n    }\n    \n}",
  "sourcePath": "/home/aditya3498/Pictures/TEAM_6/contracts/Delivery.sol",
  "compiler": {
    "name": "solc",
    "version": "0.4.24+commit.e67f0147.Emscripten.clang"
  },
  "schemaVersion": "2.0.1",
  "updatedAt": "2018-11-14T23:53:06.071Z"
}